{
  "transactions": [
    {
      "hash": "0xc848d57633ca70775cb1bb7edf21bf85473092180bf51cb849145a3a58a0b416",
      "transactionType": "CALL",
      "contractName": null,
      "contractAddress": "0x900b21b1427b92fee44ea21b3d5fd5909ed4d67d",
      "function": "mint(address,string)",
      "arguments": [
        "0xff2903AF954a5EA4F093ce1dDA940A3bDD1a79E8",
        "ipfs://bafybeibwonj54wjoujwybjmb5bry4df5ufo5bhuiau7hk7phwsuix6os4a"
      ],
      "transaction": {
        "from": "0xff2903af954a5ea4f093ce1dda940a3bdd1a79e8",
        "to": "0x900b21b1427b92fee44ea21b3d5fd5909ed4d67d",
        "gas": "0x42863",
        "value": "0x0",
        "input": "0xd0def521000000000000000000000000ff2903af954a5ea4f093ce1dda940a3bdd1a79e800000000000000000000000000000000000000000000000000000000000000400000000000000000000000000000000000000000000000000000000000000042697066733a2f2f6261667962656962776f6e6a3534776a6f756a7779626a6d62356272793464663575666f3562687569617537686b3770687773756978366f733461000000000000000000000000000000000000000000000000000000000000",
        "nonce": "0x1",
        "chainId": "0x13882"
      },
      "additionalContracts": [],
      "isFixedGasLimit": false
    }
  ],
  "receipts": [
    {
      "status": "0x1",
      "cumulativeGasUsed": "0x32342",
      "logs": [
        {
          "address": "0x900b21b1427b92fee44ea21b3d5fd5909ed4d67d",
          "topics": [
            "0xddf252ad1be2c89b69c2b068fc378daa952ba7f163c4a11628f55a4df523b3ef",
            "0x0000000000000000000000000000000000000000000000000000000000000000",
            "0x000000000000000000000000ff2903af954a5ea4f093ce1dda940a3bdd1a79e8",
            "0x0000000000000000000000000000000000000000000000000000000000000000"
          ],
          "data": "0x",
          "blockHash": "0xe3658e2b31f76d7311d6b0691d6fd116cbf92d256d35545d5c97795a84cecbc2",
          "blockNumber": "0x24f4e52",
          "blockTimestamp": "0x6a0eda98",
          "transactionHash": "0xc848d57633ca70775cb1bb7edf21bf85473092180bf51cb849145a3a58a0b416",
          "transactionIndex": "0x0",
          "logIndex": "0x0",
          "removed": false
        },
        {
          "address": "0x900b21b1427b92fee44ea21b3d5fd5909ed4d67d",
          "topics": [
            "0xf8e1a15aba9398e019f0b49df1a4fde98ee17ae345cb5f6b5e2c27f5033e8ce7"
          ],
          "data": "0x0000000000000000000000000000000000000000000000000000000000000000",
          "blockHash": "0xe3658e2b31f76d7311d6b0691d6fd116cbf92d256d35545d5c97795a84cecbc2",
          "blockNumber": "0x24f4e52",
          "blockTimestamp": "0x6a0eda98",
          "transactionHash": "0xc848d57633ca70775cb1bb7edf21bf85473092180bf51cb849145a3a58a0b416",
          "transactionIndex": "0x0",
          "logIndex": "0x1",
          "removed": false
        },
        {
          "address": "0x0000000000000000000000000000000000001010",
          "topics": [
            "0x4dfe1bbbcf077ddc3e01291eea2d5c70c2b422b415d95645b9adcfd678cb1d63",
            "0x0000000000000000000000000000000000000000000000000000000000001010",
            "0x000000000000000000000000ff2903af954a5ea4f093ce1dda940a3bdd1a79e8",
            "0x0000000000000000000000007ee41d8a25641000661b1ef5e6ae8a00400466b0"
          ],
          "data": "0x000000000000000000000000000000000000000000000000001ffdb5a056dfae000000000000000000000000000000000000000000000000032783b1548aea5a0000000000000000000000000000000000000000000047bd6df0602c300c465e000000000000000000000000000000000000000000000000030785fbb4340aac0000000000000000000000000000000000000000000047bd6e105de1d063260c",
          "blockHash": "0xe3658e2b31f76d7311d6b0691d6fd116cbf92d256d35545d5c97795a84cecbc2",
          "blockNumber": "0x24f4e52",
          "blockTimestamp": "0x6a0eda98",
          "transactionHash": "0xc848d57633ca70775cb1bb7edf21bf85473092180bf51cb849145a3a58a0b416",
          "transactionIndex": "0x0",
          "logIndex": "0x2",
          "removed": false
        }
      ],
      "logsBloom": "0x0000000000000000000000000000000000000000000000000000000000000000000000000000000000000000000000000008800000000000000000000000000000000000000000000000000800000080000000000000000000010000000000000000000002000000000000000000080000000000000000008000001000000000000020000000000002000000040000000000000000000000000000000000000020000000000000000820000000000000200000000000000000000000200000c000000002000000000001000000000000000000400000000000100000000020000400000000000000200000000000000000000000000000000000000000100000",
      "type": "0x2",
      "transactionHash": "0xc848d57633ca70775cb1bb7edf21bf85473092180bf51cb849145a3a58a0b416",
      "transactionIndex": "0x0",
      "blockHash": "0xe3658e2b31f76d7311d6b0691d6fd116cbf92d256d35545d5c97795a84cecbc2",
      "blockNumber": "0x24f4e52",
      "gasUsed": "0x32342",
      "effectiveGasPrice": "0xa3213feb6",
      "from": "0xff2903af954a5ea4f093ce1dda940a3bdd1a79e8",
      "to": "0x900b21b1427b92fee44ea21b3d5fd5909ed4d67d",
      "contractAddress": null
    }
  ],
  "libraries": [],
  "pending": [],
  "returns": {},
  "timestamp": 1779358359160,
  "chain": 80002,
  "commit": "06e7af8"
}