{
  "transactions": [
    {
      "hash": "0xfa4a5710fcd31faf0d082a222f3609f856c228597c612c3bce2a73689e35e953",
      "transactionType": "CALL",
      "contractName": null,
      "contractAddress": "0x900b21b1427b92fee44ea21b3d5fd5909ed4d67d",
      "function": "mint(address,string)",
      "arguments": [
        "0xff2903AF954a5EA4F093ce1dDA940A3bDD1a79E8",
        "ipfs://bafkreifzegzxzowpx6wxnnvify3ta5jjgy24xus2wzfbtbqlmnf5l4amxi"
      ],
      "transaction": {
        "from": "0xff2903af954a5ea4f093ce1dda940a3bdd1a79e8",
        "to": "0x900b21b1427b92fee44ea21b3d5fd5909ed4d67d",
        "gas": "0x42863",
        "value": "0x0",
        "input": "0xd0def521000000000000000000000000ff2903af954a5ea4f093ce1dda940a3bdd1a79e800000000000000000000000000000000000000000000000000000000000000400000000000000000000000000000000000000000000000000000000000000042697066733a2f2f6261666b726569667a65677a787a6f7770783677786e6e76696679337461356a6a6779323478757332777a66627462716c6d6e66356c34616d7869000000000000000000000000000000000000000000000000000000000000",
        "nonce": "0x1",
        "chainId": "0xa"
      },
      "additionalContracts": [],
      "isFixedGasLimit": false
    }
  ],
  "receipts": [
    {
      "status": "0x1",
      "cumulativeGasUsed": "0x249330",
      "logs": [
        {
          "address": "0x900b21b1427b92fee44ea21b3d5fd5909ed4d67d",
          "topics": [
            "0xddf252ad1be2c89b69c2b068fc378daa952ba7f163c4a11628f55a4df523b3ef",
            "0x0000000000000000000000000000000000000000000000000000000000000000",
            "0x000000000000000000000000ff2903af954a5ea4f093ce1dda940a3bdd1a79e8",
            "0x0000000000000000000000000000000000000000000000000000000000000000"
          ],
          "data": "0x",
          "blockHash": "0xf1719445ff31251087d712f9756b0f70ae9158f29692d7cb11c4e2852e93f020",
          "blockNumber": "0x90df012",
          "blockTimestamp": "0x6a0fb9dd",
          "transactionHash": "0xfa4a5710fcd31faf0d082a222f3609f856c228597c612c3bce2a73689e35e953",
          "transactionIndex": "0x5",
          "logIndex": "0x45",
          "removed": false
        },
        {
          "address": "0x900b21b1427b92fee44ea21b3d5fd5909ed4d67d",
          "topics": [
            "0xf8e1a15aba9398e019f0b49df1a4fde98ee17ae345cb5f6b5e2c27f5033e8ce7"
          ],
          "data": "0x0000000000000000000000000000000000000000000000000000000000000000",
          "blockHash": "0xf1719445ff31251087d712f9756b0f70ae9158f29692d7cb11c4e2852e93f020",
          "blockNumber": "0x90df012",
          "blockTimestamp": "0x6a0fb9dd",
          "transactionHash": "0xfa4a5710fcd31faf0d082a222f3609f856c228597c612c3bce2a73689e35e953",
          "transactionIndex": "0x5",
          "logIndex": "0x46",
          "removed": false
        }
      ],
      "logsBloom": "0x00000000000000000000000000000000000000000000000000000000000000000000000000000000000000000000000000080000000000000000000000000000000000000000000000000008000000000000000000000000000000000000000000000000020000000000000000000800000000000000000000000010000000000000200000000000000000000000000000000000000000000000000000000000000000000000000008200000000000002000000000000000000000002000008000000002000000000000000000000000000000000000000000000000000020000400000000000000200000000000000000000000000000000000000000000000",
      "type": "0x2",
      "transactionHash": "0xfa4a5710fcd31faf0d082a222f3609f856c228597c612c3bce2a73689e35e953",
      "transactionIndex": "0x5",
      "blockHash": "0xf1719445ff31251087d712f9756b0f70ae9158f29692d7cb11c4e2852e93f020",
      "blockNumber": "0x90df012",
      "gasUsed": "0x2d7ca",
      "effectiveGasPrice": "0x14d",
      "blobGasUsed": "0xe8d0",
      "from": "0xff2903af954a5ea4f093ce1dda940a3bdd1a79e8",
      "to": "0x900b21b1427b92fee44ea21b3d5fd5909ed4d67d",
      "contractAddress": null,
      "daFootprintGasScalar": "0x190",
      "l1BaseFeeScalar": "0x146b",
      "l1BlobBaseFee": "0x67ed9f",
      "l1BlobBaseFeeScalar": "0xf79c5",
      "l1Fee": "0x9cac0523",
      "l1GasPrice": "0x794e755",
      "l1GasUsed": "0x95c"
    }
  ],
  "libraries": [],
  "pending": [],
  "returns": {},
  "timestamp": 1779415517506,
  "chain": 10,
  "commit": "be03e75"
}